S0190000736D6172745F686F6D655F6D61737465722E73726563F1
S11300000C942A000C9447000C9447000C9447006D
S11300100C9447000C9447000C9447000C94470040
S11300200C9447000C9447000C9447000C94470030
S11300300C9447000C9447000C9447000C94470020
S11300400C9447000C9447000C9447000C94470010
S11300500C94470011241FBECFE5D8E0DEBFCDBF0E
S113006011E0A0E6B0E0EEEBF6E002C005900D92E0
S1130070A634B107D9F721E0A6E4B1E001C01D928E
S1130080AC34B207E1F70E947E020C945D030C9439
S1130090000087B3807F87BB87B3806F87BB8FEFF8
S11300A088BB08950F931F93CF93DF9340E050E0F4
S11300B09DC038B3E0E6F0E081E090E08C01008080
S11300C002C0000F111F0A94E2F7EC01028002C083
S11300D0CC0FDD1F0A94E2F7DC01048002C0AA0FF2
S11300E0BB1F0A94E2F7BC01068002C0660F771FAB
S11300F00A94E2F72C2F202B2A2B262B232B28BB08
S113010028B3FA01EE0FFF1FE05AFF4F008002C030
S1130110880F991F0A94E2F78095822388BB60E0D8
S113012070E05EC086B3FB01EE0FFF1FE859FF4F7E
S1130130208190E0022E02C0959587950A94E2F7FB
S113014080FD4CC086B390E0022E02C09595879541
S11301500A94E2F780FFF6CF41305105C9F024F448
S11301604115510541F03AC042305105F1F0433098
S1130170510541F133C061157105F1F1613071052B
S1130180E9F162307105E1F16330710539F53AC086
S113019061157105C9F161307105C1F162307105F4
S11301A0B9F163307105D1F435C061157105A1F160
S11301B06130710599F16230710591F16330710517
S11301C069F430C06115710579F16130710571F11F
S11301D06230710569F16330710561F16F5F7F4FC2
S11301E0643071050CF49ECF4F5F5F4F443051056E
S11301F00CF45FCF81E41FC087E31DC084E31BC000
S113020081E319C08FE317C088E315C085E313C0E9
S113021082E311C080E30FC089E30DC086E30BC005
S113022083E309C08DE307C08FE205C08AE203C0FF
S11302308DE201C08BE2DF91CF911F910F91089560
S113024085B3816085BB81EE94E00197F1F700C02E
S1130250000085B38E7F85BB08958AB38F708ABBF7
S113026085B3826085BB85B38B7F85BB0E942001EB
S11302708AB3806F8ABB85B38D7F85BB0895CF9386
S1130280C82F0E942D01CBBB85B3897F85BB89EF25
S113029090E00197F1F700C000000E942001CF9187
S11302A0089581E00E943F010895CF93DF93C82F02
S11302B0D62F813031F4603120F480E8860F0E941B
S11302C03F01C23031F4D03120F480EC8D0F0E9414
S11302D03F01DF91CF91089587E893E10197F1F70A
S11302E000C0000084B3876084BB85B3887F85BB6E
S11302F08FEF8ABB85EA9EE00197F1F700C000000A
S11303000E94510188E30E943F0186E00E943F0160
S113031080E80E943F018FE00E943F010895CF933F
S1130320C82F0E942D01CBBB85B38D7F85BB85B3C0
S1130330846085BB89EF90E00197F1F700C000006D
S11303400E942001CF9108950F931F93CF93DF93C1
S11303508C01C0E0D0E018C021960F5F1F4F0E94AF
S11303608F01C031D10529F460E082E00E9455017B
S11303700BC0C032D10541F40E94510160E081E01C
S11303800E945501C0E0D0E0F80180818111E4CFE2
S1130390DF91CF911F910F910895CF930E94A401F3
S11303A060E082E00E945501C3E032C00E94520026
S11303B080934B018F3319F0813451F116C0609151
S11303C04601662329F1CF5F8FEF860F80934601A4
S11303D082E00E94550180E20E948F0160914601F3
S11303E06F5F82E00E94550113C060914601633043
S11303F078F4C150E62FF0E0E95BFE4F80836F5F35
S11304006093460182E00E9455018AE20E948F01B6
S1130410C111CCCF109246010E94510164E770E0F3
S113042087E491E00E945403892B51F06CE770E05B
S113043087E491E00E945403892B21F480E003C0F7
S113044080E001C08FEFCF910895CF930E94A40163
S113045060E082E00E945501C3E033C00E94520074
S113046080934B018F3319F0813459F116C0609198
S11304704601662331F1CF5F8FEF860F80934601EB
S113048082E00E94550180E20E948F016091460142
S11304906F5F82E00E94550114C060914601633091
S11304A080F4C150E62FF0E0E95BFE4F80836F5F7C
S11304B06093460182E00E94550180914B010E94A5
S11304C08F01C111CBCF0E9451011092460160E708
S11304D070E087E491E00E945403892B51F068E7AF
S11304E070E087E491E00E945403892B21F480E0BA
S11304F003C080E001C08FEFCF9108950E944003B4
S11305000E946C010E944900109246010E94510110
S113051080E890E00E94A4012FE38DE093E0215055
S113052080409040E1F700C000000E9451018FE834
S113053090E00E9425028823D1F18FE990E00E9487
S1130540A40160E082E00E9455018CEA90E00E94E0
S1130550A4012FE38DE093E0215080409040E1F727
S113056000C00000D1CF87EB90E00E94CD0188232A
S113057071F087EC90E00E94A40187EA91E601976C
S1130580F1F700C000000E9451018C2F11C086EDCC
S113059090E00E94A4019FE32DE083E0915020406D
S11305A08040E1F700C000000E94510105C083E0D3
S11305B0CFEFC80F8111D7CF0E94510181EE90E097
S11305C00E94A40160E082E00E9455018AEE90E05E
S11305D00E94A4010E94520080934B018134D1F304
S11305E00E944C030E945003813379F40E9451010C
S11305F083EF90E00E94A40160E082E00E94550134
S113060081E091E00E94A401E5CF8B3279F40E944D
S1130610510181EE90E00E94A40160E082E00E941A
S113062055018AEE90E00E94A401D4CF833379F47B
S11306300E9451018FE091E00E94A40160E082E0F9
S11306400E94550188E191E00E94A401C3CF843344
S113065079F40E94510182E291E00E94A40160E0D9
S113066082E00E9455018BE291E00E94A401B2CF86
S1130670803309F4AFCF85E391E00E94A401AACFAF
S11306808BB18D7F8BB983E389B98AB180618AB9D3
S11306908AB188608AB908955D9BFECF8CB90895AC
S11306A05F9BFECF8CB10895FB01DC018D9101901D
S11106B080190110D9F3990B0895F894FFCF27
S11306BE040005000600070000000100020003000C
S11306CE31323300343536003131310030303000C0
S11306DE48656C6C6F2076697369746F722100457E
S11306EE6E74657220796F7572206964203A007792
S11306FE726F6E67204964212121210020636C6F83
S113070E7365642E2E2E00456E74657220796F7596
S113071E7220706173730057726F6E67207061730D
S113072E73776F726400696E2073797374656D2EBE
S113073E003129726F6F6D2031003229726F6F6D27
S113074E20320031296C656420636F6E74726F6C95
S113075E00322966616E20636F6E74726F6C0031A5
S113076E296C6564206F6E0032296C6564206F6697
S113077E6600312966616E206F6E00322966616EE5
S113078E206F666600496E76616C696420526573EB
S109079E706F6E7365002C
S9030000FC
