:100000000C942A000C9447000C9447000C94470071
:100010000C9447000C9447000C9447000C94470044
:100020000C9447000C9447000C9447000C94470034
:100030000C9447000C9447000C9447000C94470024
:100040000C9447000C9447000C9447000C94470014
:100050000C94470011241FBECFE5D8E0DEBFCDBF12
:1000600010E0A0E6B0E0EAEFF3E002C005900D92E8
:10007000A036B107D9F720E0A0E6B0E001C01D929C
:10008000A036B207E1F70E940D010C94FB010C941D
:1000900000000E94F7018823E1F3813359F441E025
:1000A00060E070E086E390E00E94C60180E30E9479
:1000B000ED01EFCF823359F440E060E070E086E379
:1000C00090E00E94C60180E30E94ED01E2CF8F33F1
:1000D00001F781E30E94ED0108950E94F701882352
:1000E000E1F3813359F441E061E070E089E390E0AD
:1000F0000E94C60180E30E94ED01EFCF823359F4E4
:1001000040E061E070E089E390E00E94C60180E396
:100110000E94ED01E2CF8F3301F781E30E94ED01F0
:1001200008950E94F7018823E1F3813331F483E3DA
:100130000E94ED010E944900F4CF823331F484E340
:100140000E94ED010E946D00ECCF8F3351F78BE2DE
:100150000E94ED0108950E94F7018823E1F38133A5
:1001600059F441E061E070E086E390E00E94C6014E
:1001700080E30E94ED01EFCF823359F440E061E06B
:1001800070E086E390E00E94C60180E30E94ED01EA
:10019000E2CF8F3301F781E30E94ED0108950E94C1
:1001A000F7018823E1F3813359F441E063E070E023
:1001B00089E390E00E94C60180E30E94ED01EFCF49
:1001C000823359F440E063E070E089E390E00E94FC
:1001D000C60180E30E94ED01E2CF8F3301F781E396
:1001E0000E94ED0108950E94F7018823E1F3813315
:1001F00031F483E30E94ED010E94AB00F4CF82331F
:1002000031F484E30E94ED010E94CF00ECCF8F33E4
:1002100051F78BE20E94ED010895CF93DF9300D058
:1002200000D0CDB7DEB70E945F01198212E01A83B9
:10023000BE016F5F7F4F86E390E00E94800101E086
:100240000B831C83BE016D5F7F4F89E390E00E94AA
:10025000800141E061E070E089E390E00E94C60126
:1002600009831A83BE016F5F7F4F86E390E00E948F
:10027000800183E08B831C83BE016D5F7F4F89E328
:1002800090E00E94800141E063E070E089E390E04B
:100290000E94C6010E94E1010E94F7018823E1F358
:1002A000813329F40E94ED010E949100F5CF823341
:1002B00099F781E30E94ED010E94F300EDCF87B131
:1002C0008F7787B987B1806487B987B18F7D87B908
:1002D00087B187B986B1806286B980B78F7780BFD2
:1002E00080B78F7B80BF80B78F7D80BF86B1877FCF
:1002F00086B986B1876086B986B1806886B9089567
:10030000FC01DB0111968C911197823061F481E040
:1003100090E00C9002C0880F991F0A94E2F7918137
:10032000892B81830895811117C081E090E09C01A1
:100330000C9002C0220F331F0A94E2F720953181FE
:10034000232321830C9002C0880F991F0A94E2F79F
:100350009281892B828308958130B9F481E090E005
:100360009C010C9002C0220F331F0A94E2F72095E3
:100370003181232321830C9002C0880F991F0A9496
:10038000E2F780959281892382830895413061F458
:1003900021E030E002C0220F331F6A95E2F7FC0132
:1003A0003281232B2283089521E030E002C0220F06
:1003B000331F6A95E2F72095FC01328123232283C3
:1003C00008958BB18D7F8BB983E389B98AB1806140
:1003D0008AB98AB188608AB908955D9BFECF8CB9CD
:1003E00083ED90E30197F1F700C0000008955F9B53
:0A03F000FECF8CB10895F894FFCF02
:00000001FF
